:020000040800F2
:1000000000500020613A00086F0F0008710F0008CF
:10001000730F0008750F0008770F0008000000003C
:10002000000000000000000000000000790F000840
:100030007B0F0008000000007D0F00087F0F000804
:10004000A93A0008A93A0008A93A0008A90F00082F
:10005000A93A0008A93A0008A93A0008A93A0008F4
:10006000A93A0008A93A0008A93A0008A93A0008E4
:10007000A93A0008A93A0008A93A0008A93A0008D4
:10008000A93A0008A93A0008A93A0008A93A0008C4
:10009000A93A0008A93A0008A93A0008A93A0008B4
:1000A000A93A0008A93A0008A93A0008A93A0008A4
:1000B000A93A0008890F0008A93A0008A93A0008DF
:1000C000A93A0008A93A0008A93A0008A93A000884
:1000D000A93A0008990F0008A93A0008A93A0008AF
:1000E000A93A0008A93A0008A93A0008000000004F
:1000F0000000000000000000000000000000000000
:0C01000000000000000000005FF808F1A3
:1001100010B5054C237833B9044B13B10448AFF341
:1001200000800123237010BDFC01002000000000AE
:10013000086C000808B5034B1BB103490348AFF333
:10014000008008BD0000000000020020086C0008CC
:1001500010F8012B11F8013B012A28BF9A42F7D071
:10016000D01A7047034613F8012B002AFBD1181A46
:100170000138704781F0004102E000BF83F0004386
:1001800030B54FEA41044FEA430594EA050F08BF32
:1001900090EA020F1FBF54EA000C55EA020C7FEAF6
:1001A000645C7FEA655C00F0E2804FEA5454D4EB73
:1001B0005555B8BF6D420CDD2C4480EA020281EA3D
:1001C000030382EA000083EA010180EA020281EA75
:1001D0000303362D88BF30BD11F0004F4FEA0131C7
:1001E0004FF4801C4CEA113102D0404261EB4101D6
:1001F00013F0004F4FEA03334CEA133302D052425C
:1002000063EB430394EA050F00F0A780A4F1010417
:10021000D5F1200E0DDB02FA0EFC22FA05F2801851
:1002200041F1000103FA0EF2801843FA05F3594137
:100230000EE0A5F120050EF1200E012A03FA0EFCB6
:1002400028BF4CF0020C43FA05F3C01851EBE371E0
:1002500001F0004507D54FF0000EDCF1000C7EEBFD
:1002600000006EEB0101B1F5801F1BD3B1F5001F3B
:100270000CD349085FEA30004FEA3C0C04F101045A
:100280004FEA445212F5800F80F09A80BCF1004F83
:1002900008BF5FEA500C50F1000041EB045141EA05
:1002A000050130BD5FEA4C0C404141EB0101013CCE
:1002B00028BFB1F5801FE9D291F0000F04BF0146BD
:1002C0000020B1FA81F308BF2033A3F10B03B3F18F
:1002D00020020CDA0C3208DD02F1140CC2F10C021F
:1002E00001FA0CF021FA02F10CE002F11402D8BF7D
:1002F000C2F1200C01FA02F120FA0CFCDCBF41EA49
:100300000C019040E41AA2BF01EB0451294330BD17
:100310006FEA04041F3C1CDA0C340EDC04F11404F4
:10032000C4F1200220FA04F001FA02F340EA0300CB
:1003300021FA04F345EA030130BDC4F10C04C4F111
:10034000200220FA02F001FA04F340EA03002946F1
:1003500030BD21FA04F0294630BD94F0000F83F43B
:10036000801306BF81F480110134013D4EE77FEA1E
:10037000645C18BF7FEA655C29D094EA050F08BF6A
:1003800090EA020F05D054EA000C04BF194610464B
:1003900030BD91EA030F1EBF0021002030BD5FEA8F
:1003A000545C05D14000494128BF41F0004130BDB7
:1003B00014F580043CBF01F5801130BD01F000450B
:1003C00045F0FE4141F470014FF0000030BD7FEA7E
:1003D000645C1ABF194610467FEA655C1CBF0B4679
:1003E000024650EA013406BF52EA033591EA030F90
:1003F00041F4002130BD00BF90F0000F04BF002188
:10040000704730B54FF4806404F132044FF00005BA
:100410004FF0000150E700BF90F0000F04BF002133
:10042000704730B54FF4806404F1320410F0004599
:1004300048BF40424FF000013EE700BF42004FEA94
:10044000E2014FEA31014FEA02701FBF12F07F4311
:1004500093F07F4F81F06051704732F07F4208BFC8
:10046000704793F07F4F04BF41F40021704730B5CF
:100470004FF4607401F0004521F000411CE700BF1B
:1004800050EA010208BF704730B54FF000050AE09E
:1004900050EA010208BF704730B511F0004502D59F
:1004A000404261EB41014FF4806404F132045FEAA1
:1004B000915C3FF4D8AE4FF003025FEADC0C18BF4A
:1004C00003325FEADC0C18BF033202EBDC02C2F13C
:1004D000200300FA03FC20FA02F001FA03FE40EACE
:1004E0000E0021FA02F11444BDE600BF70B54FF0D2
:1004F000FF0C4CF4E06C1CEA11541DBF1CEA1355B0
:1005000094EA0C0F95EA0C0F00F0DEF82C4481EA17
:10051000030621EA4C5123EA4C5350EA013518BF37
:1005200052EA033541F4801143F4801338D0A0FB24
:1005300002CE4FF00005E1FB02E506F00042E0FBD1
:1005400003E54FF00006E1FB03569CF0000F18BFD7
:100550004EF0010EA4F1FF04B6F5007F64F540747F
:1005600004D25FEA4E0E6D4146EB060642EAC62112
:1005700041EA55514FEAC52040EA5E504FEACE2E7F
:10058000B4F1FD0C88BFBCF5E06F1ED8BEF1004F82
:1005900008BF5FEA500E50F1000041EB045170BDFE
:1005A00006F0004646EA010140EA020081EA030142
:1005B000B4EB5C04C2BFD4EB0C0541EA045170BD3E
:1005C00041F480114FF0000E013C00F3AB8014F1B8
:1005D000360FDEBF002001F0004170BDC4F1000401
:1005E000203C35DA0C341BDC04F11404C4F1200582
:1005F00000FA05F320FA04F001FA05F240EA0200DD
:1006000001F0004221F0004110EBD37021FA04F612
:1006100042EB06015EEA430E08BF20EAD37070BDCC
:10062000C4F10C04C4F1200500FA04F320FA05F02B
:1006300001FA04F240EA020001F0004110EBD3702D
:1006400041F100015EEA430E08BF20EAD37070BD9D
:10065000C4F1200500FA05F24EEA020E20FA04F376
:1006600001FA05F243EA020321FA04F001F0004125
:1006700021FA04F220EA020000EBD3705EEA430E96
:1006800008BF20EAD37070BD94F0000F0FD101F0C5
:100690000046400041EB010111F4801F08BF013CFE
:1006A000F7D041EA060195F0000F18BF704703F03C
:1006B0000046520043EB030313F4801F08BF013DC3
:1006C000F7D043EA0603704794EA0C0F0CEA13557F
:1006D00018BF95EA0C0F0CD050EA410618BF52EA39
:1006E0004306D1D181EA030101F000414FF000003F
:1006F00070BD50EA410606BF1046194652EA43064D
:1007000019D094EA0C0F02D150EA013613D195EAC0
:100710000C0F05D152EA03361CBF104619460AD108
:1007200081EA030101F0004141F0FE4141F4700112
:100730004FF0000070BD41F0FE4141F4780170BD02
:1007400070B54FF0FF0C4CF4E06C1CEA11541DBF67
:100750001CEA135594EA0C0F95EA0C0F00F0A7F869
:10076000A4EB050481EA030E52EA03354FEA013196
:1007700000F088804FEA03334FF0805545EA1313A9
:1007800043EA12634FEA022245EA111545EA106571
:100790004FEA00260EF000419D4208BF964244F108
:1007A000FD0404F5407402D25B084FEA3202B61A27
:1007B00065EB03055B084FEA32024FF480104FF4FB
:1007C000002CB6EB020E75EB030E22BFB61A75466F
:1007D00040EA0C005B084FEA3202B6EB020E75EB02
:1007E000030E22BFB61A754640EA5C005B084FEA6A
:1007F0003202B6EB020E75EB030E22BFB61A754637
:1008000040EA9C005B084FEA3202B6EB020E75EB41
:10081000030E22BFB61A754640EADC0055EA060E02
:1008200018D04FEA051545EA16754FEA06164FEA45
:10083000C30343EA52734FEAC2025FEA1C1CC0D1F1
:1008400011F4801F0BD141EA00014FF000004FF07E
:10085000004CB6E711F4801F04BF01430020B4F13F
:10086000FD0C88BFBCF5E06F3FF6AFAEB5EB030CF7
:1008700004BFB6EB020C5FEA500C50F1000041EBF4
:10088000045170BD0EF0004E4EEA113114EB5C04C1
:10089000C2BFD4EB0C0541EA045170BD41F4801194
:1008A0004FF0000E013C90E645EA060E8DE60CEA9C
:1008B000135594EA0C0F08BF95EA0C0F3FF43BAFB9
:1008C00094EA0C0F0AD150EA01347FF434AF95EA70
:1008D0000C0F7FF425AF104619462CE795EA0C0F54
:1008E00006D152EA03353FF4FDAE1046194622E721
:1008F00050EA410618BF52EA43067FF4C5AE50EAFB
:1009000041047FF40DAF52EA43057FF4EBAE12E7EA
:100910004FF0FF3C06E000BF4FF0010C02E000BFCB
:100920004FF0010C4DF804CD4FEA410C7FEA6C5CAE
:100930004FEA430C18BF7FEA6C5C1BD001B050EA51
:10094000410C0CBF52EA430C91EA030F02BF90EA3C
:10095000020F0020704710F1000F91EA030F58BFFB
:10096000994208BF90422CBFD8176FEAE37040F05D
:10097000010070474FEA410C7FEA6C5C02D150EAFB
:10098000013C07D14FEA430C7FEA6C5CD6D152EAB6
:10099000033CD3D05DF8040B704700BF844610467B
:1009A00062468C461946634600E000BF01B5FFF77A
:1009B000B7FF002848BF10F1000F01BD4DF808ED4A
:1009C000FFF7F4FF0CBF012000205DF808FB00BF1B
:1009D0004DF808EDFFF7EAFF34BF012000205DF875
:1009E00008FB00BF4DF808EDFFF7E0FF94BF0120C2
:1009F00000205DF808FB00BF4DF808EDFFF7CEFFC3
:100A000094BF012000205DF808FB00BF4DF808ED01
:100A1000FFF7C4FF34BF012000205DF808FB00BFD2
:100A20004FEA410212F5001215D211D56FF4787316
:100A3000B3EB625212D94FEAC12343F0004343EAB9
:100A4000505311F0004F23FA02F018BF4042704794
:100A50004FF00000704750EA013005D111F000401E
:100A600008BF6FF0004070474FF00000704700BFB4
:100A70004A0011D212F5001211D20DD56FF478731D
:100A8000B3EB62520ED44FEAC12343F0004343EA72
:100A9000505323FA02F070474FF00000704750EABD
:100AA000013002D14FF0FF3070474FF00000704727
:100AB00038B50C4605462146284600220023FFF79C
:100AC00087FF28B928462146BDE8384000F00AB81B
:100AD000284604F1004100F005F8404261EB410175
:100AE00038BD00BFD0B500220B4B06460F46FFF7BE
:100AF000FDFCFFF7BDFF0446FFF77EFC0022074B1D
:100B0000FFF7F4FC02460B4630463946FFF736FB4A
:100B1000FFF7AEFF2146D0BD0000F03D0000F041E0
:100B200070B594B000240F9405940694079408942B
:100B3000099401940294039404940D230A934FF4AE
:100B400080330B930C9401250D950E95109502267C
:100B5000119612934FF4E01313930AA802F01CF9B4
:100B60000F230593069607944FF480630893099426
:100B7000314605A802F036FB01954FF480730293CD
:100B800001A802F023FC14B070BD10B40024234669
:100B9000025DA2F13001C9B2092906D803EB830333
:100BA00002EB4303303B0134F2E7D8B210BC70478C
:100BB0002DE9F84F0C4601F0DBFA054600283ED03F
:100BC000204901F0DBFA83461F49284601F0D6FA96
:100BD00082461E49284601F0D1FA81461C49284622
:100BE00001F0CCFA80461B49284601F0C7FA0746B7
:100BF0001949284601F0C2FA0646DBF81000FFF753
:100C0000C4FF3030A071DAF81000FFF7BEFF60714A
:100C1000D9F81000FFF7B9FF2071D8F81000FFF7DE
:100C2000B4FFA0703869FFF7B0FF60703069FFF75C
:100C3000ACFF2070284601F081F8BDE8F88F01F084
:100C40007DF8FAE7706C0008786C00087C6C00088E
:100C5000806C0008886C00088C6C000880B59EB021
:100C60000021494B1970642202A802F061FF66203E
:100C700002F040FF454B1860402002F03BFF444B20
:100C8000186002F03BF8FFF74BFF00F0DDF900F0D1
:100C900021FA00F0ADFD00F077FA00F0D3FA3D48FC
:100CA00001F0B4FB3C4800F09DFC01223B493C486C
:100CB00001F0D9FE4FF4967002F044F839E01BA819
:100CC00000F074FD9DF86C30364D00939DF86D304A
:100CD0009DF86E20294602A802F0F0FF022302AA26
:100CE0000021084600F0C2FB64242246002102A82D
:100CF00002F01EFF9DF871609DF870709DF86F0006
:100D000000F060FD00903B46324605F1100102A85C
:100D100002F0D4FF012302AA1221002000F0A6FB5A
:100D20002246002102A802F003FF1F4B012283F894
:100D300000221E4801F04CFA134B1B78002BBED04A
:100D4000012BF6D1134D284601F06CFB0024164B05
:100D500083F800420D4E30680F4F39460230FFF7DE
:100D600027FF384600F032FC66222146306802F048
:100D7000DFFE4FF4967001F0E5FF284601F046FBD8
:100D8000014B1C70D5E700BF380200203402002060
:100D90003C02002040020020000000203002002021
:100DA00080020020206C0008C0020020B405002052
:100DB000464B834200D07047454B93F80032002BDE
:100DC000F9D010B582B0434B1B780F2B02D9414BA1
:100DD00000221A70002450E03F4B4FF480625A61A9
:100DE00027E03D4B4FF400625A612BE03B4B102251
:100DF0005A612FE0394B08225A6133E002AAD11818
:100E000011F8042C520801F8042C0133DBB2032B37
:100E1000F4D90130C0B2072829D8304B02225A61D8
:100E20009DF8043013F0010FD6D02B4B4FF48062A5
:100E30001A619DF8053013F0010FD2D0264B4FF404
:100E400000621A619DF8063013F0010FCED0234BDB
:100E500010221A619DF8073013F0010FCAD01F4B02
:100E600008221A611D4B02221A610023CFE71B4B97
:100E700004221A615A610134E4B2072C1AD8164BC5
:100E800002221A61134B1B78114A02EB4412D0184C
:100E9000D15C8DF804101033D118D35C8DF8053077
:100EA00090F800318DF8063091F800318DF8073058
:100EB0000020B0E7084B02225A61064C207800F06F
:100EC00031FA23780133237002B010BD40020020B4
:100ED000C002002018020020000C01400008014060
:100EE00008B502681B4B9A4200D008BD1A4B1B681C
:100EF00059784A1CD2B25A70184A1278D2B20B44AE
:100F00009A70174B1B783BB1012B0ED0012213496D
:100F1000144801F0A8FDE8E7104B1B78DBB20A2B60
:100F2000F4D10F4B01221A70F0E70D4B00221A701A
:100F30000A4B1B78DBB20D2BE8D107490B685A78B6
:100F40000132134400229A700A6801231370064A82
:100F50001370DBE70038014034020020300200202B
:100F600019020020800200203802002070477047DC
:100F7000FEE7FEE7FEE7FEE770477047704708B5FB
:100F800001F0CEFE08BD000008B5024801F0E9FA04
:100F900008BD00BF4002002008B5024801F0F0FD86
:100FA00008BD00BF8002002008B5024801F0C4F966
:100FB00008BD00BF9C05002082B00E4B9A6942F02C
:100FC00001029A619A6902F001020092009ADA69BC
:100FD00042F08052DA61DB6903F080530193019B98
:100FE000054A536823F0E06343F00073536002B096
:100FF000704700BF00100240000001400F4B1A680C
:1010000042F001021A6059680D4A0A405A601A6893
:1010100022F0847222F480321A601A6822F480224C
:101020001A605A6822F4FE025A604FF41F029A6056
:10103000044B4FF000629A60704700BF00100240FE
:101040000000FFF800ED00E0F0B589B0002407943F
:101050001C4B9A6942F020029A619A6902F02002C0
:101060000292029A9A6942F004029A619A6902F025
:1010700004020192019A9A6942F008029A619B69FE
:1010800003F008030093009B0F48FE2343610F4DBC
:1010900040F603436B614FF6FE6303930127049709
:1010A00003260596069403A902F060FC084B0393FF
:1010B00004970596069403A9284602F057FC09B048
:1010C000F0BD00BF0010024000080140000C0140CC
:1010D0000F030C0400B587B000230293039304931D
:1010E0000593009301931648164A02604722426016
:1010F000836040F2E732C26003618023836101F0C4
:1011000027FB98B94FF48053029302A90C4801F0D1
:101110009FF970B920230093002301936946084882
:1011200001F030FB40B907B05DF804FBFFF71EFF8C
:10113000E8E7FFF71BFFEDE7FFF718FFF3E700BF56
:10114000400200200004004002680E4B9A4200D08A
:10115000704700B583B003F50333DA6942F0020249
:10116000DA61DB6903F002030193019B022211465D
:101170001D2002F09FFB1D2002F0D0FB03B05DF8A4
:1011800004FB00BF0004004008B50A480A4B036096
:101190004FF41653436000238360C36003610C2245
:1011A00042618361C36101F02FFC00B908BDFFF704
:1011B000DDFEFBE7800200200038014030B587B03B
:1011C0000023029303930493059302681B4B9A42F6
:1011D00001D007B030BD03F558439A6942F480420C
:1011E0009A619A6902F480420092009A9A6942F0E8
:1011F00004029A619B6903F004030193019B4FF47D
:101200000073029302230393032305930C4D02A959
:10121000284602F0E1F94FF480630293002403941E
:10122000049402A9284602F0D7F922462146252037
:1012300002F040FB252002F071FBCAE700380140B4
:1012400000080140044B02225A61044B01221A702B
:10125000034B00221A707047000C01401000002060
:101260001A020020402859D8202957D830B4C30882
:1012700000F00700012A16D0022A29D0032A3AD00A
:10128000274A02EB43125518545C012303FA00F07D
:10129000C04340B204EA0003535495F800311840AB
:1012A00085F8000112E01E4A02EB43125518545C07
:1012B000012303FA00F040B244EA0003DBB25354C6
:1012C00095F8003123EA000085F8000130BC704732
:1012D000134A02EB43125518535C012404FA00F040
:1012E00040B223EA0003535495F800311843C0B2CA
:1012F00085F80001EAE70A4A02EB43125518535CED
:10130000012404FA00F040B20343DBB2535495F8D1
:1013100000311843C0B285F80001D7E7704700BF1D
:10132000C002002010F0010F15D0134B01221A61EA
:1013300010F0020F13D0114B80221A6110F0040F2D
:1013400011D00E4B40221A6110F0080F0FD00B4B3A
:1013500020221A617047084B01225A61E8E7074BC7
:1013600080225A61EAE7054B40225A61ECE7034BC1
:1013700020225A61704700BF000C01400008014064
:101380002DE9F04F83B0074688469B46314911F856
:1013900013A01AF0070318BF012303EBDA0301EBD4
:1013A0004B01497803FB01F3DBB20093203AD3B23F
:1013B000019344464FF0000938E0BBF1010F09D01A
:1013C000BBF1020F42D1244B019A03EB021313F835
:1013D000095039E0019B03EB4303204A02EB8303EE
:1013E00013F8095030E01E4B1A7821463846FFF7B3
:1013F00039FF6D00EDB20134E4B2A4EB08035345AC
:101400000DD00136F6B2072E0CD815F0800FEAD1B8
:10141000144B1A7821463846FFF724FFE9E70137D5
:10142000FFB2444609F101095FFA89F9009B994529
:101430000CD2BBF1000FC0D1019B03EB43030A4A5E
:1014400002EB430313F809500026DCE703B0BDE8C4
:10145000F08F00BF4879000858730008E46E000858
:10146000100000201A020020A86C00082DE9F041AD
:1014700080460F4615461E462A78A2F12004E4B2A3
:101480005E2C0DD8334639464046FFF779FF054CB0
:1014900004EB4604607840445FFA80F80135EBE7DE
:1014A000BDE8F0814879000801F5E1410268536820
:1014B00043F01003536003680A0C9A61036889B211
:1014C000D9610268536823F01003536070470268C3
:1014D000D36990699BB243EA00407047817901F576
:1014E000FA6140F2B173994267D970B440F2B273B5
:1014F00000240EE0324AA2FB0352D2094FF4C87511
:1015000005FB123292B2B2B94FF4B77214440133F0
:101510009BB28B4212D213F0030FEBD1284AA2FBED
:1015200003525209642505FB123292B2002AE1D01F
:101530004FF4B772EAE740F26D12E7E7012214E0D8
:101540001F4BA3FB0153DB094FF4C87505FB1313B5
:101550009BB2E3B90125561E6B001D44194B03EBEA
:1015600085039B5D1C44013292B24379934210D9AA
:1015700011F0030FE4D1124BA3FB01535B09642567
:1015800005FB13139BB2002BDAD00125E3E70025FE
:10159000E1E703792344013B82784FF4616404FB63
:1015A00002F4094A02FB03434278C2EB021203EB46
:1015B00082030078184470BC70470020704700BF59
:1015C0001F85EB516C7900088051010008B5FFF7C9
:1015D00085FFA0F5E1410248FFF766FF08BD00BFA7
:1015E0009C05002070B582B00646214C214B23603B
:1015F0004FF0FF33636002F0B3F91F4BDA6942F03A
:101600000062DA61DB6903F000630193019B01254D
:101610001A4B1D602A460021032002F04BF90320DB
:1016200002F07CF92946204600F0B0FE44F2213356
:10163000984213D00E4C204600F01EFE204600F0CB
:101640001BFE90B93046FFF7C1FF44F22132012161
:10165000074800F093FE002002B070BD204600F065
:10166000EFFD2846064B1D60F6E7FFF77FFCE9E734
:101670009C05002000280040001002403C0442422B
:10168000E004424270B48160434BA3FB0142520923
:101690001446C2EB0212A1EB82020270A3FB0423E8
:1016A0005B091946C3EB0313A4EB830343703B4B65
:1016B000A3FB01231B091A4603EB4303A1EBC3035E
:1016C000837011460332364BA3FB0243D41A03EB5B
:1016D00054039B08C3EBC303D31A0133C37040F216
:1016E000B27310E02F4AA2FB0352D2094FF4C8751F
:1016F00005FB123292B2A2B9B1F5B77F17D3A1F5AB
:10170000B77101339BB213F00304EBD1254AA2FB5E
:1017100003525209642505FB123292B2002AEBD122
:10172000E0E7B1F5B67F02D9A1F26D11E9E703F167
:10173000300282710022427111E01A4AA2FB036258
:10174000D2094FF4C87606FB123292B2BAB9164AE1
:101750002A44127B8A4218D8891A01354571457985
:101760000B2D12D8002CE8D10E4AA2FB03625209BD
:10177000642606FB123292B2002AE8D1DDE70A4A5B
:10178000525D8A4201D8891AE7E701354571013176
:101790000171002070BC704789888888ABAAAAAA0A
:1017A000254992241F85EB516C79000810B5044639
:1017B0000348FFF78CFE01462046FFF763FF10BD8C
:1017C0009C05002070B489B0064601AC074D0FCDD2
:1017D0000FC495E8070084E80700013E08AB03EB5F
:1017E000860656F81C0C09B070BC7047546C000893
:1017F00008B50748074B03600123436040F6C31355
:10180000836000F0C0FC00B908BDFFF7AFFBFBE749
:10181000B40500200030004010B330B4044609B3D2
:10182000884209D1002019E002F120050CE0854230
:1018300013D1CAB10134013122780C4BD35C03F0CF
:101840000303012BF0D015460878084BC35C03F066
:101850000303012BEBD12030E9E7281A30BC704795
:10186000012070470120F9E70020F7E7C67900085A
:101870002E20704710B40446002318460AE0A1F158
:101880004102D2B2052A10D808443738022B00D8BA
:1018900000010133032B11D8E15CA1F13002D2B277
:1018A000092AECD808443038F0E7A1F16102D2B23D
:1018B000052A02D808445738E8E7002010BC7047D2
:1018C000F8B50B1A052B60DD06460F4615460230AB
:1018D000FFF7D0FF0446A0F55C43B3F5806F56D305
:1018E000A0F55843B3F5806F1CD2B11D7F1A052FA8
:1018F0004FDDB3795C2B4ED1F379752B4DD106F1C9
:101900000800FFF7B7FFA0F55C43B3F5806F46D240
:10191000254B03EA8424C0F30900204300F58034FA
:101920000C2000E006207F2C0BD9B4F5006F0DD3FE
:10193000B4F5803F0DD3B4F5881F32D2F0270426CA
:1019400001E000270126731EDBB20EE0C02702264D
:10195000F9E7E0270326F6E704F03F012A6841F0A3
:101960008001D154A409013BDBB2002BF4D1012E3C
:1019700006D92B683C431C702B6833442B6005E070
:101980002B6804F07F041C70F6E70020F8BD0020EF
:10199000FCE70020FAE70020F8E70020F6E7002047
:1019A000F4E70020F2E700BF00FC0F002DE9F04152
:1019B00082B007460E460B688A68551C1D440021FC
:1019C0000191184603EB020E9B5C222B40F08780AE
:1019D0002C468C4600E00134211A726891420BD2E9
:1019E0002378222B08D05C2BF5D10134231A9342A3
:1019F00075D20CF1010CEEE7914270D22378222BC4
:101A00006DD1A4EB0E00A0EB0C00336901309847B8
:101A1000804600285DD0019005E0019B5A1C019290
:101A200015F8012B1A70A54261D22B785C2BF4D1EA
:101A3000631B002B4DDD6B78752B4AD85C2B11D3C3
:101A40005C3B192B45D8DFE803F01144444444447F
:101A500018444444204444444444444427444444B3
:101A60002E44353C222B01D02F2B32D1019B5A1C06
:101A700001926A781A70022305E0019B5A1C0192B8
:101A800008221A7002231D44CDE7019B5A1C0192C3
:101A90000C221A700223F6E7019B5A1C01920A22BB
:101AA0001A700223EFE7019B5A1C01920D221A7053
:101AB0000223E8E7019B5A1C019209221A700223B3
:101AC000E1E701AA21462846FFF7FAFE034600286F
:101AD000D9D1B8F1000F02D07369404698479DB143
:101AE0003368ED1AB560002002B0BDE8F081019BBB
:101AF00000221A701023FB60C7F810803368E31AC5
:101B00000133B3600120EFE70020EDE7024678B132
:101B1000006890B1936851688B4205D2C15C20295E
:101B200002D801339360F5E7936851688B4201D086
:101B300010467047013B9360FAE70246F8E710B59C
:101B4000036828209847044618B12822002101F094
:101B5000EFFF204610BD000038B5044678B100689C
:101B600078B1A5687DB92B1D6268934207D2032224
:101B70000649284402F005F908B90335A560204656
:101B800038BD0446FBE70024F9E700BF847900086C
:101B90002DE9F04393B005460C4600231193FFF75F
:101BA00067FE002C00F098802368002B00F09680E0
:101BB000002330E0652A29D012AA1344002203F83A
:101BC000442C0DF1040911A9484602F001FF064614
:101BD0000F46DDF84480C84500F08280C5E90667FD
:101BE00041A3D3E90023FEF707FF002863D06FF07D
:101BF00000436B610823EB6001ABA8EB0308A3680B
:101C00004344A360012013B0BDE8F08312A9194436
:101C100001F8442C01333E2BCED8A2681A446168E7
:101C20008A42C9D221688A5C452AC3D82B2AC3D3E9
:101C3000A2F12B011A29BFD801A656F821F000BF46
:101C40000D1C0008B91B00080D1C0008AD1C000885
:101C5000B91B00080D1C00080D1C00080D1C000815
:101C60000D1C00080D1C00080D1C00080D1C0008B0
:101C70000D1C00080D1C00080D1C0008B91B0008F5
:101C8000B91B0008B91B0008B91B0008B91B0008E4
:101C9000B91B0008B91B0008B91B0008B91B0008D4
:101CA000B91B0008B91B00080D1C000812AA1A4431
:101CB00002F8440CAEE700220D4B30463946FEF7E1
:101CC00091FE18B14FF000436B6193E730463946FF
:101CD000FEF7A6FE68618DE7002094E7002092E7FA
:101CE000002090E7AFF300800000C0FFFFFFDF415E
:101CF0000000E0C138B50446B8B10D46B9B18468FA
:101D000042B97CB1216A2846FFF786FD50B12468AC
:101D1000F7E7246834B1216A21B12846FEF718FAA2
:101D20000028F6D12CB1236A2BB1204638BD0C46D1
:101D3000FBE70024F9E70024F7E7000038B5044684
:101D400016E0E36813F4807F04D1206910B10F4BD3
:101D50005B689847E36813F4007F04D1206A10B1F0
:101D60000A4B5B689847094B5B68204698472C46AE
:101D700054B12568E36813F4807FE2D1A06800289D
:101D8000DFD0FFF7DBFFDCE738BD00BF1400002029
:101D9000CB68B3F57A7F80F086802DE9F041064666
:101DA0000C460133CB6000297FD08B684A68934290
:101DB0007DD20A68D25C7B2A02D00020BDE8F08187
:101DC00001338B600846FFF7A1FEA3686268934267
:101DD00003D22268D35C7D2B59D0A36862689342FA
:101DE00004D2013BA36000252F4634E0013BA360F1
:101DF0000020E3E70746A3680133A3602046FFF70E
:101E000085FE21462846FFF7D1FD002839D020461F
:101E1000FFF77CFE2B692B6200232B61A3686268AD
:101E200093422ED22268D25C3A2A2AD10133A3608F
:101E30002046FFF76BFE2146284600F03DF800B330
:101E40002046FFF763FEA3686268934211D22268BE
:101E5000D35C2C2B0DD1A84604F11000FFF76FFEC8
:101E6000054670B1002FC5D0C8F80000C0F8048046
:101E7000C1E7A3686268934203D22268D35C7D2BDA
:101E800006D0B7B13846FFF759FF002096E7002784
:101E9000E368013BE3604023F360B760A36801336C
:101EA000A36001208AE700207047002086E7002019
:101EB00084E7002082E70000002974D070B5064650
:101EC0000C460D68002D70D08868021D4B689A4240
:101ED00006D804223749284401F053FF002839D09E
:101EE000A068421D63689A4206D8052232492844F8
:101EF00001F047FF002834D0A068021D63689A42B1
:101F000006D804222D49284401F03BFF00282ED09A
:101F1000A3686268934202D2EB5C222B2FD0A368A5
:101F20006268934206D2EB5C2D2B2DD0303BDBB2A6
:101F3000092B29D9A3686268934202D2EB5C5B2B20
:101F400027D0A3686268934231D2EB5C7B2B25D00B
:101F500000202BE00423F360A3680433A360012076
:101F600024E00120F060A2680532A2601EE0022396
:101F7000F36001207061A2680432A26016E021467D
:101F80003046FFF713FD11E021463046FFF700FE13
:101F90000CE02146304600F013F807E021463046B9
:101FA000FFF7F6FE02E000207047002070BD002021
:101FB000FCE700BF88790008A4790008AC79000824
:101FC000CB68B3F57A7F6AD22DE9F04106460C461C
:101FD0000133CB600A688B68D25C5B2A02D0002098
:101FE000BDE8F08101338B600846FFF78FFD3CB1FF
:101FF000A3686268934203D22268D35C5D2B46D00B
:1020000044B1A3686268934204D2013BA3600025F7
:102010002F461BE0A368013BA3600020E0E70746D2
:10202000A3680133A3602046FFF770FD21462846D0
:10203000FFF742FF68B32046FFF768FDA3686268B8
:10204000934211D22268D35C2C2B0DD1A84604F107
:102050001000FFF774FD0546D8B1002FDFD0C8F897
:102060000000C0F80480DBE7A3686268934210D2E6
:102070002268D35C5D2B0CD1E368013BE360202335
:10208000F360B760A3680133A3600120A8E70027CD
:10209000F2E737B13846FFF751FE0020A0E70020F5
:1020A000704700209CE70000F0B58BB00C46174647
:1020B00000230493059306930793089309932A4AF0
:1020C000136053600546002831D00390FEF74AF8AC
:1020D0000130049000230593244B93E807000AAED7
:1020E00006E907001846FFF72AFD0646D8B103A8FF
:1020F000FFF732FDFFF70AFD01463046FFF7DCFE31
:1021000088B12FB934B3039B059A1344236021E0AF
:1021100003A8FFF7FBFC059B049A934203D2039AA2
:10212000D35C002BEED016B13046FFF707FECDB1E1
:10213000019500230293059A049B9A420DD20292C4
:1021400014B1029B1D442560074B0299019883E856
:102150000300002630460BB0F0BD002BF0D0013B51
:102160000293EDE72E46F5E71C0200201400002044
:1021700008B500221146FFF797FF08BD08B50022F9
:10218000FFF7B8FD08BD08B338B5044603684CF640
:10219000CC421A60036845F255521A6003684268DF
:1021A0005A60036882689A6000F0C6FD054623689D
:1021B000DA6832B100F0C0FD401B3028F7D90320A7
:1021C00003E04AF6AA221A60002038BD01207047B9
:1021D00003684AF6AA221A600020704738B5044600
:1021E00000F0AAFD054623685A6812F0200F07D1B7
:1021F00000F0A2FD401BB0F57A7FF4D9032004E083
:102200005A6842F010025A60002038BD38B50446C2
:102210000268536823F01003536000F08DFD0546FB
:1022200023685B6813F0200F07D100F085FD401B89
:10223000B0F57A7FF4D9032000E0002038BD704764
:10224000C0B138B505460268536823F008035360EF
:1022500000F072FD04462B685B6813F0080F07D18D
:1022600000F06AFD001BB0F57A7FF4D9032000E08E
:10227000002038BD01207047002857D010B5044613
:10228000437C4BB1022363742046FFF7D9FF38B17A
:1022900004236374012010BD0374FFF7D0FFF1E73E
:1022A0002046FFF79BFF60BB2268536823F00703BB
:1022B0005360A36823B11E4A136B23F00103136319
:1022C0001B4AD36A23F46073A1680B43D36262682C
:1022D000B2F1FF3F19D021688B6823F00F0343EA66
:1022E00012438B602168CB681B0C1B0492B2134312
:1022F000CB602046FFF78AFF88B104236374012076
:10230000C9E7042363740120C5E7012001F0E8F860
:1023100008B1421EDFE7042363740120BBE70023FA
:10232000E37301236373A3736374B4E701207047FD
:10233000006C00407047704703681A6812F0010F84
:102340001BD010B504465A6812F0010F0FD05B681D
:1023500013F0040F0CD0FFF7EEFF23686FF00402B8
:102360005A600423637423686FF001025A6010BD41
:10237000FFF7E0FF01236374F5E77047890001F17F
:10238000804101F5D84192B20A607047890001F19D
:10239000804101F5D841086880B2704730B4036AC3
:1023A000056A25F001050562846924F0F00444EA19
:1023B000021423F00A030B438461036230BC7047AC
:1023C00030B4056A25F0100505628469036A24F4B7
:1023D000704444EA023423F0A00343EA0113846109
:1023E000036230BC7047836823F0700341F007013B
:1023F00019438160704710B4846824F47F4442EA32
:1024000003220A432243826010BC70470268D368EB
:1024100043F00103D3600268136843F001031360C3
:10242000002070470268D36823F00103D36003687B
:10243000196A41F21112114208D1196A40F244425C
:10244000114203D11A6822F001021A60002070477D
:1024500090F83C30012B7ED010B50446012380F863
:102460003C30022380F83D300268936823F47F43B8
:1024700023F0770393600B68502B49D019D8202B99
:102480005FD00DD9302B61D0402B3AD1CA68496852
:102490000068FFF783FF40212068FFF7A4FF30E0CA
:1024A000002B49D0102B2CD110210068FFF79BFF87
:1024B00027E0B3F5805F1FD00ED9B3F5005F20D1C0
:1024C000CB684A6889680068FFF795FF22689368BF
:1024D00043F48043936014E0602B23D0702B10D121
:1024E000CB684A6889680068FFF785FF22689368AF
:1024F00043F07703936004E00268936823F00703D6
:102500009360012384F83D30002084F83C0010BD26
:10251000CA6849680068FFF741FF50212068FFF74B
:1025200062FFEEE7CA6849680068FFF749FF60216B
:102530002068FFF758FFE4E700210068FFF753FF2A
:10254000DFE720210068FFF74EFFDAE7302100685F
:10255000FFF749FFD5E70220704770477047704783
:10256000704710B5044603681A6912F0020F11D0C3
:10257000DA6812F0020F0DD06FF002021A61012327
:10258000037703689B6913F0030F70D0FFF7E6FF32
:102590000023237723681A6912F0040F12D0DA6837
:1025A00012F0040F0ED06FF004021A610223237799
:1025B00023689B6913F4407F5FD02046FFF7CEFF6E
:1025C0000023237723681A6912F0080F12D0DA6803
:1025D00012F0080F0ED06FF008021A61042323775F
:1025E0002368DB6913F0030F4ED02046FFF7B6FFD8
:1025F0000023237723681A6912F0100F12D0DA68CB
:1026000012F0100F0ED06FF010021A61082323771A
:102610002368DB6913F4407F3DD02046FFF79EFF1F
:102620000023237723681A6912F0010F03D0DA68B8
:1026300012F0010F36D123681A6912F0800F03D00F
:10264000DA6812F0800F34D123681A6912F0400F53
:1026500003D0DA6812F0400F32D123681A6912F001
:10266000200F03D0DA6812F0200F30D110BDFFF731
:1026700074FF2046FFF773FF8AE72046FFF76DFFE0
:102680002046FFF76CFF9BE72046FFF766FF2046DA
:10269000FFF765FFACE72046FFF75FFF2046FFF737
:1026A0005EFFBDE76FF001021A612046FEF780FB76
:1026B000C1E76FF080021A61204600F08DF8C3E791
:1026C0006FF040021A612046FFF74AFFC5E76FF03E
:1026D00020021A61204600F07EF8C7E703681B4A13
:1026E00090420AD0B0F1804F07D0A2F594329042C8
:1026F00003D002F58062904203D123F070034A6850
:102700001343124A90420AD0B0F1804F07D0A2F58D
:102710009432904203D002F58062904203D123F4B8
:102720004073CA68134323F080034A69134303606C
:102730008B68C3620B688362044B984202D001230A
:10274000436170470B690363F9E700BF002C014048
:10275000B0B110B5044690F83D3063B1022384F85F
:102760003D30214651F8040BFFF7B8FF012384F8F0
:102770003D30002010BD80F83C30FEF7E5FCEDE771
:102780000120704790F83C30012B22D030B4012258
:1027900080F83C20022380F83D300468636823F011
:1027A00070036360046863680D682B4363600468AA
:1027B000A36823F08003A3600468A36849680B43FF
:1027C000A36080F83D20002380F83C30184630BCE0
:1027D000704702207047704770470268D36823F43F
:1027E0009073D3600268536923F00103536120237F
:1027F00080F83A30704790F83930DBB2212B01D0A5
:10280000022070478368B3F5805F17D0036A5A1CB3
:1028100002621A7803685A60C38C9BB2013B9BB278
:10282000C3844BB90268D36823F08003D360026885
:10283000D36843F04003D36000207047036A1B88CD
:102840000268C3F30803536003691BB9036A0233C8
:102850000362E1E7036A01330362DDE72DE9F84330
:1028600005460268136923F44053C1680B431361A2
:10287000836802691343426913430168CA6822F4FA
:10288000B05222F00C021343CB600268536923F468
:10289000407381690B4353610268594B9A4257D088
:1028A00000F074FD00EB800000EB80006C68A40079
:1028B000B0FBF4F4534EA6FB04346409270100F086
:1028C00065FD00EB800404EB84046B689B00B4FBA3
:1028D000F3F900F05BFD00EB800303EB83036C680E
:1028E000A400B3FBF4F4A6FB043464094FF06408BD
:1028F00008FB149424013234A6FB0434640904F068
:10290000F0043C4400F042FD00EB800000EB80004E
:102910006F68BF00B0FBF7F700F038FD00EB8000F8
:1029200000EB80006B689B00B0FBF3F0A6FB00306F
:10293000400908FB10784FEA081808F13208A6FB96
:102940000836C6F343162B6826449E60BDE8F8831C
:1029500000F02CFD00EB800000EB80006C68A40010
:10296000B0FBF4F4274EA6FB04346409270100F001
:102970001DFD00EB800404EB84046B689B00B4FB3A
:10298000F3F900F013FD00EB800000EB80006C68B1
:10299000A400B0FBF4F4A6FB043464094FF064080F
:1029A00008FB149424013234A6FB0434640904F0B7
:1029B000F0043C4400F0FAFC00EB800000EB8000E7
:1029C0006F68BF00B0FBF7F700F0F0FC00EB800091
:1029D00000EB80006B689B00B0FBF3F0A6FB0030BF
:1029E000400908FB10784FEA081808F13208A6FBE6
:1029F0000836C6F343162B6826449E60A6E700BF40
:102A0000003801401F85EB5158B310B5044690F8CB
:102A100039300BB3242384F839302268D36823F487
:102A20000053D3602046FFF719FF2268136923F48F
:102A3000904313612268536923F02A03536122688B
:102A4000D36843F40053D3600020E063202384F86C
:102A5000393084F83A3010BD80F83830FEF7AEFBDC
:102A6000D8E70120704790F83A30DBB2202B20D114
:102A700009B312B390F83830012B20D081628285DF
:102A8000C2850023C363222280F83A2080F83830C0
:102A90000168CA6842F48072CA6001684A6942F0FB
:102AA00001024A610168CA6842F02002CA60184601
:102AB00070470220704701207047012070470220B4
:102AC0007047704708B50168CA6822F04002CA60C2
:102AD000202280F83920FFF7F4FF002008BD08B558
:102AE00090F83A30DBB2222B46D18368B3F5805F91
:102AF0000FD003690BBB03685A68836A591C816253
:102B00001A70C38D9BB2013B9BB2C385F3B1002009
:102B100008BD826A036943B903685B68C3F30803AD
:102B20001380836A02338362EBE703685B68DBB27E
:102B30001380836A01338362E3E703685B68826A18
:102B4000511C816203F07F031370DAE70268D368D7
:102B500023F02003D3600268D36823F48073D3602A
:102B60000268536923F001035361202380F83A304F
:102B7000FEF7B6F90020CBE70220C9E77047000056
:102B800010B5044602681368D168526913F00F004B
:102B900005D113F0200F02D011F0200F13D128B16E
:102BA00012F0010213D111F4907F10D113F0800FB5
:102BB00002D011F0800F69D113F0400F02D011F054
:102BC000400F67D110BD2046FFF789FFFAE713F0E9
:102BD000010F06D011F4807F03D0E06B40F00100BC
:102BE000E06313F0040F04D01AB1E06B40F0020070
:102BF000E06313F0020F04D01AB1E06B40F0040060
:102C0000E06313F0080F04D01AB1E26B42F008023F
:102C1000E263E26B002AD5D013F0200F02D011F04E
:102C2000200F21D123685B6903F04003E26B12F0AF
:102C3000080F00D123B32046FFF7CFFD23685A6960
:102C400012F0400F18D05A6922F040025A61636BAB
:102C500073B1124A5A63606B00F0CEFD0028B1D008
:102C6000606B436B9847ADE72046FFF738FFD9E725
:102C70002046FFF783FFA5E72046FFF77FFFA1E788
:102C80002046FFF77BFF0023E3639BE72046FFF727
:102C9000B2FD97E72046FFF715FF93E7A12C000848
:102CA00008B5406A0023C385C384FFF767FF08BDEA
:102CB00010B504460E4B18784FF47A73B3FBF0F35B
:102CC0000C4A1068B0FBF3F000F034FE68B90F2C2A
:102CD00001D901200AE0002221464FF0FF3000F028
:102CE000E9FD054B1C60002000E0012010BD00BF85
:102CF000200000200C0000202400002008B5074A16
:102D0000136843F010031360032000F0C1FD00209E
:102D1000FFF7CEFFFEF750F9002008BD002002406B
:102D2000034A1168034B1B780B441360704700BFC4
:102D3000C005002020000020014B1868704700BF2C
:102D4000C005002038B50446FFF7F6FF0546B4F18C
:102D5000FF3F02D0044B1B781C44FFF7EDFF401BE4
:102D6000A042FAD338BD00BF2000002082B0084B3B
:102D70001B68084AA2FB03235B0A00FB03F30193D1
:102D800000BF019B5A1E0192002BF9D102B070477F
:102D90000C000020D34D621070B582B00446036869
:102DA00013F0010F2CD0AB4B5B6803F00C03042B2A
:102DB0001DD0A84B5B6803F00C03082B12D063688E
:102DC000B3F5803F41D0002B55D103F1804303F58B
:102DD00004331A6822F480321A601A6822F48022BE
:102DE0001A6037E09B4B5B6813F4803FE7D0994B48
:102DF0001B6813F4003F03D06368002B00F0AE8122
:102E0000236813F0020F75D0924B5B6813F00C0F20
:102E10005FD0904B5B6803F00C03082B54D0236900
:102E2000002B00F089808C4B01221A60FFF784FF91
:102E30000546884B1B6813F0020F74D1FFF77CFF27
:102E4000401B0228F5D903208DE1824A136843F420
:102E500080331360636843B3FFF76EFF05467D4B15
:102E60001B6813F4003FCBD1FFF766FF401B6428BB
:102E7000F5D9032077E1B3F5A02F09D0754B1A6877
:102E800022F480321A601A6822F480221A60E1E784
:102E900003F18043A3F53C331A6842F480221A60A0
:102EA0001A6842F480321A60D4E7FFF745FF0546FE
:102EB000684B1B6813F4003FA2D0FFF73DFF401B97
:102EC0006428F5D903204EE1624B5B6813F4803F20
:102ED000A5D1604B1B6813F0020F03D02369012BAF
:102EE00040F03E815B4A136823F0F803616943EACE
:102EF000C1031360236813F0080F32D0A369002BBD
:102F000045D0564B01221A60FFF716FF0546514B7C
:102F10005B6A13F0020F21D1FFF70EFF401B02285E
:102F2000F5D903201FE14B4A136823F0F8036169C8
:102F300043EAC1031360DDE7474B00221A60FFF745
:102F4000FBFE0546434B1B6813F0020FD2D0FFF780
:102F5000F3FE401B0228F5D9032004E10120FFF70E
:102F600005FF236813F0040F00F09880394BDB69EC
:102F700013F0805F1DD1374BDA6942F08052DA617D
:102F8000DB6903F080530193019B012512E0334B71
:102F900000221A60FFF7D0FE05462E4B5B6A13F045
:102FA000020FDED0FFF7C8FE401B0228F5D9032030
:102FB000D9E000252A4B1B6813F4807F11D0E36809
:102FC000012B22D0002B38D103F1804303F50433C9
:102FD0001A6A22F001021A621A6A22F004021A62C4
:102FE00018E01F4A136843F480731360FFF7A4FED0
:102FF00006461B4B1B6813F4807FE0D1FFF79CFE55
:10300000801B6428F5D90320ADE0124A136A43F00F
:1030100001031362E3687BB3FFF78EFE06460D4B98
:103020001B6A13F0020F38D1FFF786FE801B41F2B6
:1030300088339842F3D9032095E0052B12D0054B35
:103040001A6A22F001021A621A6A22F004021A6253
:10305000E0E700BF0010024000004242800442420C
:1030600000700040424B1A6A42F004021A621A6A67
:1030700042F001021A62CDE7FFF75EFE06463C4BC6
:103080001B6A13F0020F08D0FFF756FE801B41F2B7
:1030900088339842F3D9032065E0E5B9E369002B52
:1030A00060D0334A526802F00C02082A5DD0022B2D
:1030B00017D0304B00221A60FFF73EFE04462C4B1F
:1030C0001B6813F0007F47D0FFF736FE001B022875
:1030D000F5D9032047E0264AD36923F08053D36112
:1030E000DCE7244B00221A60FFF726FE0546204B42
:1030F0001B6813F0007F06D0FFF71EFE401B02285E
:10310000F5D903202FE0236AB3F5803F1AD0184980
:103110004B6823F47413226A606A024313434B60C2
:10312000144B01221A60FFF707FE0446104B1B6880
:1031300013F0007F0ED1FFF7FFFD001B0228F5D929
:10314000032010E00A4A536823F40033A1680B43BC
:103150005360DCE7002006E0002004E0012002E0EC
:10316000012000E0002002B070BD0120FBE700BF9D
:10317000001002406000424286B0164B0FCB0DF1AA
:10318000180C0CE90F0040F20123ADF80430124B8B
:103190005B6803F00C02082A02D0104806B07047A2
:1031A000C3F38342624412F8102C13F4803F0CD016
:1031B000094B5B68C3F34043634413F8143C07486E
:1031C00000FB02F0B0FBF3F0E8E7054800FB02F07B
:1031D000E4E700BFB47900080010024000127A0052
:1031E00000093D0070B504460D46614B1B6803F0B5
:1031F00007038B420BD25E4A136823F007030B438D
:103200001360136803F007038B4240F0AB80236820
:1032100013F0020F17D013F0040F04D0554A53686F
:1032200043F4E0635360236813F0080F04D0514A5D
:10323000536843F4605353604E4A536823F0F003DD
:10324000A1680B435360236813F0010F52D06368E9
:10325000012B23D0022B28D0464A126812F0020F0D
:1032600000F0828043494A6822F0030213434B6016
:10327000FFF762FD06466368012B1DD0022B2AD0A2
:103280003C4B5B6813F00C0F34D0FFF755FD831BEC
:1032900041F288329342F3D9032062E0354A126842
:1032A00012F4003FDED101205BE0324A126812F0D6
:1032B000007FD7D1012054E02E4B5B6803F00C0354
:1032C000042B17D0FFF738FD831B41F2883293425D
:1032D000F2D9032045E0274B5B6803F00C03082B71
:1032E00008D0FFF729FD801B41F288339842F2D9BC
:1032F000032036E01E4B1B6803F00703AB420AD9DC
:103300001B4A136823F007032B431360136803F071
:103310000703AB422AD1236813F0040F06D0154AE5
:10332000536823F4E063E1680B435360236813F0B0
:10333000080F07D00F4A536823F46053216943EA0A
:10334000C1035360FFF718FF0A4B5B68C3F3031315
:10335000094AD35CD840094B18600020FFF7A8FC4D
:10336000002070BD0120FCE70120FAE70120F8E70A
:103370000020024000100240906C00080C00002069
:10338000014B1868704700BF0C00002008B5FFF71C
:10339000F7FF044B5B68C3F30223034AD35CD840B6
:1033A00008BD00BF00100240A06C000808B5FFF780
:1033B000E7FF044B5B68C3F3C223034AD35CD840E6
:1033C00008BD00BF00100240A06C000870B582B0BC
:1033D0000446036813F0010F34D03E4BDB6913F051
:1033E000805F47D13B4BDA6942F08052DA61DB699A
:1033F00003F080530193019B0125374B1B6813F4A5
:10340000807F39D0334B1B6A13F4407311D062684C
:1034100002F440729A420CD02E4A136A23F4407090
:103420002E4901260E6000260E60106213F0010F77
:1034300036D1284A136A23F4407361680B43136240
:10344000002D3ED1236813F0020F06D0214A5368A5
:1034500023F44043A1680B435360236813F0100F1B
:1034600034D01C4A536823F48003E1680B43536053
:1034700000202CE00025C0E7174A136843F480734E
:103480001360FFF759FC0646134B1B6813F4807F4B
:10349000B8D1FFF751FC801B6428F5D9032016E052
:1034A000FFF74AFC06460B4B1B6A13F0020FC0D114
:1034B000FFF742FC801B41F288339842F3D9032086
:1034C00005E0D36923F08053D361BBE7002002B04D
:1034D00070BD00BF00100240007000404004424236
:1034E00010B586B00446374B0FCB0DF1180C0CE924
:1034F0000F0040F20123ADF80430022C51D0102C03
:1035000004D0012C2CD0002006B010BD2E4B5A68E0
:10351000186810F08070F7D0C2F3834306A90B44FB
:1035200013F8100C12F4803F16D0274B5B68C3F3DE
:1035300040430B4413F8142C244BB3FBF2F300FB71
:1035400003F0214B5B6813F4800FDDD14000204B6A
:10355000A3FB00304008D7E71E4B03FB00F0F0E769
:10356000194B1B6A40F202321A40B2F5817F23D018
:1035700003F44073B3F5007F04D0B3F5407F09D066
:103580000020C1E7104A526A12F0020FF5D049F646
:103590004040B9E70C4B1B6813F4003F0FD10020EB
:1035A000B2E7FFF703FF084B5B68C3F381330133D6
:1035B0005B00B0FBF3F0A7E74FF40040A4E74FF245
:1035C0002440A1E7B47900080010024000127A00FC
:1035D000ABAAAAAA00093D00F0B482B000252C468F
:1035E000A3E07F4FBB4210D007D97E4FBB420CD027
:1035F00007F58037BB4208D013E0A7F58017BB4220
:1036000003D007F57027BB4207D18B68002B58D039
:10361000012B51D04261082503E0A7F58017BB427A
:10362000F3D0FF2E4FD88446FF2E4FD8A200DCF8EF
:1036300000300F27974023EA070305FA02F21343ED
:10364000CCF800304B6813F0805F6DD0664B9A6900
:1036500042F001029A619B6903F001030193019B0F
:10366000A208971C614B53F8273004F00307BF00F2
:103670004FF00F0C0CFA07FC23EA0C0C5C4B984241
:103680002AD003F58063984200F08A8003F58063B6
:10369000984200F0878003F5806398421AD0042393
:1036A0001BE0CD68BDE7CD680435BAE7CD680835C5
:1036B000B7E7CD680C35B4E702610825B1E700250E
:1036C000AFE70425ADE700F1040CADE7A4F1080273
:1036D0009200ACE7032300E00023BB4043EA0C0365
:1036E0000232424F47F822304B6813F4803F5BD0E0
:1036F000404A1368334313604B6813F4003F59D0BA
:103700003C4A5368334353604B6813F4801F57D0CF
:10371000384A9368334393604B6813F4001F55D0C5
:10372000344AD3681E43D66001340F2C54D801228A
:10373000A2400B6803EA020632EA0303F4D14B68A5
:10374000122B3FF64EAF122B3FF66BAF01A757F887
:1037500023F000BF0B360008A3360008AD36000882
:10376000BF36000823360008233600082336000839
:1037700023360008233600082336000823360008C5
:1037800023360008233600082336000823360008B5
:103790002336000823360008A7360008B336000891
:1037A00001239AE7022398E7124A136823EA0603E3
:1037B0001360A1E70F4A536823EA06035360A3E7A7
:1037C0000C4A936823EA06039360A5E7094AD36885
:1037D00023EA0606D660A7E702B0F0BC704700BF38
:1037E00000002210000031100010024000000140D3
:1037F000000801400004014008B590F82130022B78
:1038000003D004238363012008BD0268136823F0FA
:103810000E0313600268136823F00103136003684A
:10382000194A934214D0143293421FD01432934257
:103830001ED0143293421ED0143293421ED0143242
:10384000934202D04FF0807203E04FF4801200E008
:1038500001220E4B5A60012380F82130002380F8AA
:103860002030436B6BB198470020CDE71022F0E782
:103870004FF48072EDE74FF48052EAE74FF4803264
:10388000E7E70020C0E700BF080002400000024058
:10389000074AD36823F4E0631B041B0C000200F406
:1038A000E060034343F0BF6343F40033D3607047E9
:1038B00000ED00E030B4174BDB68C3F30223C3F123
:1038C0000704042C28BF04241D1D062D18D9033B12
:1038D0004FF0FF3505FA04F421EA0401994005FA96
:1038E00003F322EA0303194300280BDB0901C9B2E1
:1038F00000F1604000F5614080F8001330BC704773
:103900000023E5E700F00F000901C9B2024B19548A
:10391000F4E700BF00ED00E014ED00E000F01F024E
:10392000400901239340024A42F82030704700BF0B
:1039300000E100E00138B0F1807F0AD2064B586008
:10394000064AF02182F823100020986007221A60AE
:1039500070470120704700BF10E000E000ED00E07C
:10396000014B01221A60704720000E42F0B50D682D
:10397000C5F30F2595FAA5F2B2FA82F235E0A2F16D
:1039800008044FF00113A34043F0806339E0C459A9
:1039900093FAA3F6B6FA86F6B6004FF0030C0CFACB
:1039A00006F624EA060C93FAA3F6B6FA86F6B600F3
:1039B0008C6804FA06F646EA0C06C651CC6893FAFF
:1039C000A3FCBCFA8CFC4FEA8C0C4FF0040E0EFAF0
:1039D0000CFC26EA0C0693FAA3F3B3FA83F39B00DC
:1039E00004FA03F33343C351013235FA02F335D0FD
:1039F000012393402B42F7D0072AC0D840F201138D
:103A000093404E681F0EC45993FAA3FCBCFA8CFC79
:103A10004FEA8C0C4FF00F0E0EFA0CFC24EA0C044B
:103A200093FAA3FCBCFA8CFC4FEA8C0C06FA0CF659
:103A30003443C451C6681C0A26EA132C94FAA4F431
:103A4000B4FA84F40E6906FA04F44CEA0404C4607F
:103A50004C68012C9BD0092CC6D198E70120F0BD01
:103A6000002103E00B4B5B58435004310A480B4BD9
:103A700042189A42F6D30A4A02E0002342F8043B75
:103A8000084B9A42F9D3FDF7B9FA00F00FF8FDF7A9
:103A9000E5F870473C7E000800000020FC01002093
:103AA000FC010020D4050020FEE7000070B50026D0
:103AB0000C4D0D4C641BA410A64209D103F0A4F8D0
:103AC00000260A4D0A4C641BA410A64205D170BD05
:103AD00055F8043B98470136EEE755F8043B984704
:103AE0000136F2E7347E0008347E0008347E000898
:103AF000387E0008024B0146186800F06DB800BF20
:103B000028000020024B0146186800F019B800BFD9
:103B1000280000200A44914200F1FF3300D1704791
:103B200010B511F8014B914203F8014FF9D110BDC6
:103B300003460244934200D1704703F8011BF9E7A2
:103B400038B50546002943D051F8043C0C1F002B22
:103B5000B8BFE41801F0F4FA1E4A1368104633B9EE
:103B6000636014602846BDE8384001F0EFBAA34214
:103B70000AD921686218934201BF1A685B6852181B
:103B8000226063600460EDE71A465B680BB1A342F4
:103B9000FAD911685018A0420BD12068014450187E
:103BA00083421160DED118685B6801441160536084
:103BB000D8E702D90C232B60D4E7206821188B4268
:103BC00001BF19685B680918216063605460C9E728
:103BD00038BD00BF24020020F8B5CD1C25F0030538
:103BE00008350C2D38BF0C25002D064601DBA942F7
:103BF00003D90C2333600020F8BD01F0A1FA21495C
:103C00000A6814469CB9204F3B6823B921463046C8
:103C100000F044F838602946304600F03FF8431C75
:103C200023D10C233046336001F090FAE3E7236898
:103C30005B1B17D40B2B03D923601C44256004E0C5
:103C40006368A2420CBF0B605360304601F07EFAFD
:103C500004F10B00231D20F00700C21ACCD01B1A60
:103C6000A350C9E722466468CCE7C41C24F00304CF
:103C7000A042E3D0211A304600F010F80130DDD127
:103C8000CFE700BF2402002028020020024B0A4692
:103C90000146186801F026BF2800002038B500232F
:103CA000054D044608462B6002F096FF431C02D1E6
:103CB0002B6803B1236038BDC40500200EB46FF03B
:103CC000004100B59CB01DAB029006900791049195
:103CD0000848094953F8042B0591006802A901938B
:103CE00001F082FF0022029B1A701CB05DF804EB09
:103CF00003B07047280000200802FFFF10B50C46F3
:103D0000B1F90E1002F006FA0028ABBF636DA3896B
:103D10001B1823F48053ACBF6365A38110BD2DE94C
:103D2000F0411F468B890546DB050C46164605D536
:103D300002230022B1F90E1001F0DEF9A389324608
:103D400023F48053A38128463B46B4F90E10BDE806
:103D5000F04100F049BE10B50C46B1F90E1001F06B
:103D6000CBF9431CA38915BF606523F4805343F44A
:103D70008053A38118BFA38110BDB1F90E1000F0CC
:103D800045BE10B56AB10139841810F8013B11F82D
:103D9000012F934203D1A04201D0002BF5D1981AF4
:103DA00010BD1046FCE72DE9F0410F46904601F0AA
:103DB00043FD04460D46B8F1000F11D0C7F30A5376
:103DC000C3F16B03002B0BDD00241B0503F17F55B2
:103DD00005F5401522462B46FCF788FB04460D46A8
:103DE00020462946BDE8F0812DE9F04F9B4600238F
:103DF000A1B01C93A14B82461F680E46384617920D
:103E0000FCF7B0F94FF0000804464FF000091B968C
:103E10001B9B1A782B2A4CD03AD80D2A33D8082A63
:103E200033D8002A3DD000230C931B9D2B78302BD8
:103E300040F0AF806B7803F0DF03582B6CD10C9B04
:103E4000504601931CAB00938D4ACDF808B01DABD2
:103E50001BA900F053FE10F00706044605D0062EFD
:103E600029D1002301351B950C93179B002B40F0A3
:103E700096850C9BD3B1424609F100431046194682
:103E800021B0BDE8F08F202ACDD101331B93BFE7CD
:103E90002D2AC8D101220C925A1C1B925B78002B50
:103EA000C3D1179B1B96002B40F0778542464B46AB
:103EB000E4E70022EFE71C9A3AB135211EA801F091
:103EC000BFFD50461C9901F087F9013E052E07D829
:103ED000DFE806F00E0B181D0E034FF00009C84670
:103EE0002107C2D549F00049BFE7DDE91E89F7E7A0
:103EF0001D9ADDE91E8302F2334223F4801343EA64
:103F00000259EDE74FF00008DFF87891E8E76FF02D
:103F100000494FF0FF38E3E71B9B5A1C1B925B786C
:103F2000302BF9D0002BA0D0012307931B9B0A2232
:103F3000089300239B46CDE905331B980578A5F12E
:103F40003003D9B2092926D922463946FFF719FF8D
:103F5000002832D000202B465C4602460490652B98
:103F600001D0452B13D11CB9079B034399D00024E2
:103F70001B9E731C1B9373782B2B78D02D2B7BD01F
:103F80000027A3F13001092940F282801B96002509
:103F90009EE00023C9E7BBF1080FD5BF069905993C
:103FA00002FB013302FB013300F10100D4BF069391
:103FB00005930BF1010B1B90BFE71B9B1A191B927A
:103FC0001B5DBBF1000F36D05C460490A3F13002BC
:103FD000092A12D90122C2E71B9B01305A1C1B92ED
:103FE0005B78302BF8D0A3F13102082A00F2DC8490
:103FF0000490002004461B9A0892303B00F1010215
:1040000013D0049905191144049122460A21AA42A9
:1040100013D12218082A04F1010404441BDC0A22EB
:10402000069902FB0133069300221B9B1046591C84
:104030001B915B78CAE75846D3E7082A04DC069F41
:104040004F4306970132E2E7571C102FDEBF059F52
:104050004F430597F6E7102CDFBF0A22059902FBB4
:1040600001330593E0E70023012204937CE7002756
:10407000B31C1B93B37884E70127F9E7C07B0008E2
:10408000D87A00080000F07F1B9B591C1B915B78BD
:10409000302BF9D0A3F1310108293FF678AF4FF06A
:1040A0000A0EA3F1300C1B9B09931B9B591C1B91FF
:1040B0005B78A3F13005092D35D9099D491B0829E5
:1040C00044F61F6502DC6545A8BF654607B16D4231
:1040D000002C4CD1079901437FF4C7AE002A7FF42E
:1040E000E0AE692B26D023DC492B23D04E2B7FF466
:1040F000D8AE9C491BA800F04FFF00283FF4D1AE7A
:104100001B9B1B78282B2CD197491EAA1BA800F0BB
:1041100057FF052825D11F9BDDF8788043F0FF4924
:1041200049F4E009A1E60EFB0C3CACF1300CBCE715
:104130006E2BDCE78D491BA800F02EFF00283FF412
:10414000B0AE1B9B8A49013B1BA81B9300F024FFC8
:1041500010B91B9B01331B934FF00008DFF820922E
:1041600083E6844801F0E8FF804689467DE6049BAB
:10417000BBF1000F08BFA346EB1A102C0698264689
:104180000793A8BF1026FCF737F9092C804689460B
:1041900013DD794B03EBC60353E91223FCF7A6F9B1
:1041A000804605988946FCF727F902460B464046AB
:1041B0004946FBF7E5FF804689460F2C36DC079B16
:1041C000002B3FF452AE22DD162B09DC6A4C42462E
:1041D00004EBC3044B46D4E90001FCF787F9C3E7BD
:1041E000079AC4F12503934220DB634DC4F10F0409
:1041F00005EBC4014246D1E900014B46FCF776F9D4
:10420000079B1C1B05EBC405D5E90023E5E7079BCD
:1042100016330BDB049B584A5D1B02EBC505404679
:10422000D5E900234946FCF78BFA9DE7079BA61BBF
:104230001E44002E71DD16F00F030AD04E4942468F
:1042400001EBC301D1E900014B46FCF74FF9804671
:10425000894636F00F0650D0B6F59A7F27DD4FF02D
:10426000000BCDF810B0CDF820B0CDF818B0222357
:104270004FF00008DFF80891CAF80030089B002BC7
:104280003FF4F3AD50461C9900F0A6FF5046069946
:1042900000F0A2FF5046049900F09EFF5046089996
:1042A00000F09AFF5946504600F096FFDDE50023E6
:1042B000404649461F463611012E21DC0BB180468F
:1042C00089462E4BA9F1547903EBC7074246D7E93B
:1042D00000014B46FCF70AF9294B0A460B402949D5
:1042E00080468B42BBD8A1F580118B4286BF4FF030
:1042F000FF38DFF8949002F15479002305937EE0B3
:10430000F20707D51D4B03EBC703D3E90023FCF7E6
:10431000EDF8012301377610CEE7EED0764216F0A5
:104320000F020AD0144B404603EBC2034946D3E9BF
:104330000023FCF705FA804689463611DDD01F2E92
:1043400024DD4FF0000BCDF810B0CDF820B0CDF843
:1043500018B022234FF000084FF00009CAF80030CF
:104360008CE700BFD57A0008EC7A0008CC7A000808
:10437000CF7A0008D27D0008907C0008687C000895
:104380000000F07F0000A07CFFFFEF7F16F010031D
:1043900018BF6A234046059349460023B24FF207EF
:1043A00004D5D7E90023FCF7A1F80123761007F123
:1043B0000807F4D10BB180468946059BBBB1C9F310
:1043C0000A53C3F16B03002B494610DD1F2B40F34A
:1043D0002B81342BD8BF4FF0FF324FF00008CFBFF6
:1043E0004FF05C79203B02FA03F303EA0109002253
:1043F000002340464946FCF7E1FA0028A1D1069B7C
:104400005A46009350462346089900F051FF089001
:1044100000283FF424AF049B4FF0000B5D1B079B6B
:10442000CDF810B0002BB4BF2B4600230E93079B92
:1044300023EAE3731693089B5046596800F08CFEFC
:10444000069000283FF413AF089B0C301A6903F163
:104450000C0102329200FFF75DFB1EAB01931DAB16
:10446000009342464B465046CDE90A8901F05EFA78
:104470001C9000283FF4FBAE0121504600F0B0FF35
:104480000346049000283FF4F2AE1D9D1E9A002DB5
:10449000ABBF0E9B169BEE185C1B059BA8BF169C22
:1044A000A5EB03051544714B05F1FF35B8BF0E9E12
:1044B0009D42C2F1360280F2C9805B1B1F2B4FF078
:1044C0000107A2EB030200F3B680002507FA03F30D
:1044D0000F93B718059BBE4214441C443346A8BF33
:1044E0003B46A342A8BF2346002BC2BFFF1AE41AD3
:1044F000F61A0E9B002B17DD1A465046049901F060
:1045000029F8049000283FF4B2AE01461C9A5046A8
:1045100000F07CFF099000283FF4A9AE50461C999A
:1045200000F05AFE099B1C93002F00F39380079B19
:10453000002B08DD5046169A069901F00BF80690FC
:1045400000283FF494AE002C08DD22465046069920
:1045500001F05AF8069000283FF489AE002E08DDDD
:1045600032465046049901F04FF8049000283FF479
:104570007EAE5046069A1C9901F0CEF8834600287C
:104580003FF475AE0024C3680499C4600D9301F034
:10459000A7F8A04270DA0D9B53EA080340F096801A
:1045A000C9F31303002B40F0918029F000431B0D49
:1045B0001B05B3F1D66F40F28980DBF8143023B9C4
:1045C000DBF81030012B40F3818059460122504620
:1045D00001F01AF80499834601F082F8002875DD8D
:1045E00005994B46224A002900F0918002EA090110
:1045F000B1F1D66F00F38B80B1F15C7F7FF7A9AE8C
:1046000000231C4A4046CDE914324946DDE9142313
:10461000FBF76CFF0B46034308BF22238046894605
:1046200008BFCAF800302DE64FF0FF3202FA03F35C
:1046300003EA0808DBE6C5F17F4505F57F0505F5CA
:104640007B45E23507FA05F50F9742E70123002580
:104650000F933EE73A4650461C9900F0D5FF1C9058
:1046600000287FF464AF02E6007B000802FCFFFF35
:104670000000F07F00005039CDF8249066D10D9AEB
:10468000C9F313035AB39C4A93422CD1059B40466D
:1046900003B34B46994A4FF0FF311A40B2F1D46F41
:1046A0001BD8120DC2F16B0301FA03F398421AD121
:1046B000934B099A9A4202D101303FF4D8AD4FF0A2
:1046C00000088E4B099A1A4002F58019059B002BB1
:1046D00096D1D7E54FF0FF33E8E70B46E6E753EA1C
:1046E00008033FF47DAFE5B1099B1D42EED00D9B61
:1046F00040464946059AC3B1FFF755FB02460B46B3
:10470000DDE90A01FBF73CFD80468946DEE7134000
:10471000A3F580136FEA13594FF0FF386FEA095978
:10472000D4E70F9B13EA080FE0E7FFF73CFB0246D4
:104730000B46DDE90A01FBF721FD0022002380463C
:104740008946FCF73BF90028C0D002E65846049998
:1047500001F048F900224FF0804306460F46FCF76F
:1047600041F9002875D00D9B002B47D00026654FDE
:10477000644D099B23F000431B0D1B050F930F9AFB
:10478000614B9A4240F0C880DDE90A23CDE9142349
:10479000099B4046A3F15479494601F04DF8024681
:1047A0000B4630463946FBF7A1FE42464B46FBF727
:1047B000E7FC0B465149554A1940914280465ED963
:1047C0000B9B02F15472934203D10A9B01333FF4D5
:1047D0004EAD4FF0FF38DFF8289150461C9900F09D
:1047E000FBFC5046069900F0F7FC5046049900F097
:1047F000F3FC5946504600F0EFFC1CE6B8F1000F00
:1048000019D1099BC3F31303E3B90022304639469B
:104810003C4BFCF7DDF8C8B90022304639463C4B2A
:10482000FBF764FE04460D4605F100431894199306
:10483000DDE918679DE7B8F1010F03D1099B002B53
:104840003FF487AD00260024324F91E70D9C304D98
:10485000EAE72F4B002230463946FBF747FE0D9B17
:1048600004460D4633B901F1004310901193DDE980
:1048700010677EE702460B46CDE91023F7E703F108
:104880005479059B002BA8D129F000430F9A1B0DEA
:104890001B059A42A1D120462946FCF709F9FBF7EE
:1048A000F7FD02460B4620462946FBF767FC0D9AAA
:1048B000C9F3130343EA0803134304460D4666D0C5
:1048C00009A3D3E90023FCF783F800287FF4DAACCE
:1048D00007A3D3E9002320462946FCF797F80028D0
:1048E0003FF47BAFCEE400BF9535A094FFFFDF3FE0
:1048F00035E5AF350000E03FFFFF0F000000F07F1F
:10490000FFFFEF7F0000F03F0000E07FFFFF9F7C94
:104910000000E03F0000F0BF059B13B30F9BB3F115
:10492000D46F1ED826A3D3E9002320462946FCF7DE
:1049300059F890B129462046FCF79AF8012838BF6B
:104940000120FBF759FD0D9B04460D46D3B901F13B
:10495000004312901393DDE912670F9A07F1D663B3
:104960009F1ADDE90A0100F067FF02460B46304658
:104970003946FBF7BBFDDDE90A23FBF701FC804666
:1049800089467EE702460B46CDE91223E3E70EA3F4
:10499000D3E90023FCF71CF8A1E700230C931B9B31
:1049A000179A1360FFF765BA652B3FF45CAB452B94
:1049B0003FF459AB0122FFF78DBB00BFAFF300807E
:1049C0000000C0FFFFFFDF419535A094FFFFCF3F00
:1049D0000A4601460248034B0068FFF705BA00BFCC
:1049E000280000209000002038B5044608461146F3
:1049F0000022054D2A601A4602F0FCF8431C02D141
:104A00002B6803B1236038BDC405002038B50023EE
:104A1000054D044608462B6002F0A6F8431C02D15F
:104A20002B6803B1236038BDC405002003692DE95C
:104A3000F043B3EB611F00F114044FEA611246DD4D
:104A400011F01F0104EB830604EB82050CD129460B
:104A500000F11007B14235D39B1A9B00EA1E964223
:104A600038BF0023234415E0A14654F82270C1F159
:104A70002008CF4005F1040E7645F44616D89B1A5F
:104A80009A00043A0135AE4238BF0022A318A7505D
:104A900007B10433A342A3EB040208BF00234FEA8B
:104AA000A202026108BF4361BDE8F083DCF800C0E8
:104AB0000CFA08FC4CEA070749F8047B5EF8047B13
:104AC000CF40D9E751F804CB47F804CFC2E72346DB
:104AD000E0E7A0F13003092B02D82038C0B27047BC
:104AE000A0F16103052B01D84738F7E7A0F1410396
:104AF000052B01D82738F1E7002070472DE9F04F4A
:104B00008BB00693B94B02901B688B4618469046B3
:104B10000393FBF727FB8246039BDBF8002003444B
:104B200013F8013C0793931CC2F1FF2202F57F02A8
:104B3000FE32D1181F4613F8010B01913028F8D02E
:104B4000FFF7C7FF044600283AD15246384603997A
:104B5000FFF717F90546002866D117F80A0007EB9A
:104B60000A06FFF7B6FF002860D0334618781F46C4
:104B7000302803F10103F9D0FFF7ABFF0123B0FAAE
:104B800080F43546640901933A461646307801327E
:104B9000FFF79FFF0028F8D1524630460399FFF7F0
:104BA000F0F880B94DB906EB0A052A46164630786A
:104BB0000132FFF78EFF0028F8D1AD1BAD0004E0F5
:104BC00000242546E0E7002DF7D1337803F0DF031A
:104BD000502B39D173782B2B2AD02D2B2CD04FF082
:104BE0000009711C0878FFF774FF431EDBB2182B15
:104BF0002AD8A0F1100211F8010FFFF76AFF431E37
:104C0000DBB2182B1BD9B9F1000F00D0524215446A
:104C1000CBF80010D4B1019B002B14BF002706274E
:104C200038460BB0BDE8F08F3E4625460124CCE760
:104C30004FF00009B11CD5E74FF00109FAE70A234C
:104C400003FB0202103AD6E73146E1E72146F31BA7
:104C5000013B072B0ADC029800F07EFA044640B9BB
:104C60000246DE21624B634801F07AFA01315B10A3
:104C7000EFE74FF0000B00F11409CAF10103CDF882
:104C80001090CDF804B00893B7423FD3049F019B26
:104C900047F8043BA7EB0907BF102761184600F04F
:104CA00051FB7F01D8F800603F1AB74262DDBF1B9D
:104CB0003946204600F0E7FE8246A8B14FF0010ACF
:104CC0007B1E591159F8211003F01F020AFA02F253
:104CD0000A4209D0534505DD2046B91E00F0D3FE37
:104CE000002844D14FF0020A39462046FFF79EFEC5
:104CF0003D44D8F80830AB424ADA2146029800F029
:104D00006BFA0023149AA327136089E7731E079A8E
:104D1000059316F8013C934219D0BBF1200F07D13F
:104D2000049B019A43F8042B049300239B460193B0
:104D300016F8010CFFF7CDFE019B00F00F0000FA02
:104D40000BF0034301930BF1040B059B0DE0059B56
:104D5000089A1344BB42E0D318465246039909937C
:104D6000FFF70FF8099B0028D7D11E468CE74FF0BC
:104D7000030AB9E709DAF71B21463A46029800F020
:104D800043FC0446ED1B00F114094FF0000AB0E7A4
:104D9000D8F80400A84271DD451BAE4234DCD8F8D7
:104DA0000C30022B28D0032B2AD0012B15D1AE4278
:104DB00013D1012E0BD1D8F80430069A6227136064
:104DC00001232361C9F80030149B1C6028E72046AA
:104DD000711E00F058FE0028EDD12146029800F027
:104DE000FBF90023149A5027136019E7C07B0008D1
:104DF000287B0008397B0008159B002BEDD1DAE7F2
:104E0000159B002BD7D1E8E76F1EBAF1000F32D106
:104E100027B13946204600F036FE824601217B113B
:104E200059F8233007F01F0701FA07F71F424FF028
:104E300002072946204618BF4AF0020A761BFFF7F0
:104E4000F5FDD8F80450BAF1000F48D0D8F80C306E
:104E5000022B15D0032B17D0012B09D11AF0020F0A
:104E600006D0D9F800004AEA000A1AF0010F0ED164
:104E700047F0100733E04FF0010ACFE70127E2E7E0
:104E8000159BC3F101031593159B002BF0D04FF038
:104E9000000CD4F810B004F114034FEA8B0A03EBB2
:104EA0008B01184653F8042BB2F1FF3F1CD001329E
:104EB0000260022F04F114033DD1D8F80020013A1A
:104EC000B2420AD10122711153F8213006F01F06B7
:104ED00002FA06F61E4218BF174647F02007149B39
:104EE0001C60069B1D609BE6994243F804CCD8D811
:104EF000A3689B4517DB61680298013100F02CF92B
:104F0000814618B902468421194BACE6226904F1A6
:104F10000C01023292000C30FEF7FCFD2146029893
:104F200000F05AF94C4623695A1C2261012204EB15
:104F300083035A61BDE722695A450BDD01212046F2
:104F4000FFF774FDD8F808300135AB42FFF6D5AE57
:104F50000127C2E716F01F06FAD09A445AF8040C4B
:104F600000F0F0F9C6F12006B042E7DBF0E700BF41
:104F7000287B0008C2F10802920070B5C2F1200639
:104F80004368046803FA06F52C43D340046040F8F4
:104F9000043F8842F4D370BD30B50368013311F883
:104FA000014B14B90360012030BD13F8012BA2F1AD
:104FB0004105192D98BF2032A242F0D00020F3E71E
:104FC0002DE9F04F00250B6882465E1102EB860644
:104FD00013F01F0318BF0436371F9046B9463C46EE
:104FE000AB4687B00168019346F8045C02954A78A5
:104FF0004B1C039342B3104605910492FFF769FDE1
:1050000000284FD1049A0599202A18D8029B9B4565
:1050100013DD4C4506D2072D04DC2A4649462046BE
:10502000FFF7A8FF444550D90023A4F1040944F830
:10503000043C1D464C46CDF808B00399D7E7292A11
:1050400056D10231CAF80010BBF1000F50D04C45C8
:1050500006D2072D04DC2A4649462046FFF78AFF80
:10506000444534D92346A8F1040253F8041B9F4257
:1050700042F8041FF9D23B1B23F00303043301342D
:10508000033EB44288BF04230022434443F8042B68
:105090009F42FBD23B681BB9474527D101233B60A8
:1050A000052026E00135082D0BF1010B06DD4445F6
:1050B000C3D90023012544F8043C043C226800F0D5
:1050C0000F0040EA02122260B7E70825B5E7019B0E
:1050D000002BDFD04FF0FF32C3F1200322FA03F39D
:1050E00056F8042C1A4046F8042CD3E7043FD1E7C5
:1050F000042007B0BDE8F08F38B5044608461146D5
:105100000022054D2A601A4601F056FD431C02D1CB
:105110002B6803B1236038BDC405002082B001B9FB
:1051200001A942B14BB113780B601278101E18BF61
:10513000012002B070471046FBE76FF00100F8E76E
:10514000014801F0F5B900BFCC050020014801F08D
:10515000F0B900BFCC05002070B5466A04460D4684
:1051600076B91020FEF7C6FC0246606220B96621BF
:10517000174B184800F0F4FFC0E901660660C660EE
:10518000666AF36883B1636ADB6853F82500B8B9CF
:10519000012101FA05F6721D2046920000F094FCF0
:1051A00060B1C0E901560EE021220421204600F042
:1051B0008BFC636AF060DB68002BE4D1002070BDDB
:1051C000026843F825200023C0E90333F7E700BF56
:1051D000D47B0008EB7B000870B5466A05460C4698
:1051E00076B91020FEF786FC0246686220B98A2153
:1051F000084B094800F0B4FFC0E901660660C660CC
:105200003CB16B6A6268DB6853F82210216043F896
:10521000224070BDD47B0008EB7B00082DE9F041F3
:1052200098460C4600230E69074601F114000568F4
:105230000133A9B202FB01812D0C4FEA114C02FB94
:1052400005C589B201EB05419E424FEA154840F879
:10525000041BECDCB8F1000F22D0A368B34219DCC8
:10526000616838460131FFF777FF054628B90246E5
:10527000B5210D4B0D4800F073FF226904F10C01BC
:10528000023292000C30FEF745FC21463846FFF70B
:10529000A3FF2C4604EB86030136C3F81480266175
:1052A0002046BDE8F08100BF287B0008EB7B0008AA
:1052B0002DE9F843154609221F4608330C4693FB97
:1052C000F2F30646012200219A4209DB3046FFF73D
:1052D00043FF40B90246CE21184B194800F040FF69
:1052E00052000131F0E7089B092D43614FF00103A3
:1052F000036116DD04F10909C8462C4418F8013B86
:1053000001460A223046303BFFF788FFA045F5D121
:10531000A5F108044C442D1B6319BB4204DBBDE816
:10532000F88309250A34F6E714F8013B01460A22FE
:105330003046303BFFF772FFEEE700BF287B0008E6
:10534000EB7B0008020C12040346CAB903041020C8
:1053500013F07F4F04BF1B02083013F0704F04BFDF
:105360001B01043013F0404F04BF9B000230002BA0
:1053700005DB13F0804F00F1010008BF20207047CB
:105380000020E5E70368024613F007000BD0D907B9
:1053900022D4980749BF5B089B08012013605CBFBB
:1053A00002201360704799B209B910201B0C13F04A
:1053B000FF0F04BF1B0A0830190704BF1B09043084
:1053C000990704BF9B080230D90703D45B0800F19A
:1053D000010003D013607047002070472020704701
:1053E00010B50C460121FFF7B7FE024628B94FF46D
:1053F000A071044B044800F0B3FE01234461036133
:1054000010BD00BF287B0008EB7B00082DE9F04FA2
:1054100014460A6923690D469A42BEBF0B462546CB
:105420001C46D5F810A0D4F81090AB6869680AEB58
:105430000907BB4285B0B8BF0131FFF78DFE30B917
:10544000024640F25D11414B414800F089FE00F1F7
:1054500014063346002206EB870843451ED305F1A8
:10546000140C04F114030CEB8A0C03EB8902029276
:10547000ACEB0502153A22F00302043205F11501E6
:105480008C4538BF04220192029A03939A4208D8AD
:10549000002F55DC076105B0BDE8F08F43F8042B01
:1054A000DBE7B3F800A0BAF1000F20D0B14600222C
:1054B00005F1140E5EF8044BD9F800B0A1B21FFA42
:1054C0008BFB0AFB01B11144D9F80020240C120C0B
:1054D0000AFB042404EB114489B241EA0441F44577
:1054E0004FEA144249F8041BE4D801997250039A18
:1054F0000433B2F80290B9F1000F1FD0B6464FF056
:10550000000A346805F114010A88BEF802B0A4B29A
:1055100009FB02B2924444EA0A444EF8044B51F8A3
:10552000044BBEF80020240C09FB04248C4504EB3A
:105530001A444FEA144AE7D8019AB4500436A3E754
:1055400058F8043D002BA5D1013FA1E7287B0008B6
:10555000EB7B00082DE9F843154612F003020646DE
:105560000F4607D0254C013A002354F82220FFF7BC
:1055700055FE0746AD103DD0746A7CB91020FEF789
:10558000B9FA0246706228B94FF4D7711C4B1D4816
:1055900000F0E6FDC0E901440460C460D6F8248050
:1055A000D8F808404CB940F271213046FFF718FF97
:1055B00000230446C8F8080003604FF00009EB0719
:1055C0000AD5394622463046FFF720FF8046394645
:1055D0003046FFF701FE47466D100BD0206838B902
:1055E000224621463046FFF711FF2060C0F80090A8
:1055F0000446E4E73846BDE8F88300BF587D00085C
:10560000D47B0008EB7B00082DE9F0470C460746E9
:1056100091462369496803EB6218A3684FEA621A4E
:1056200008F10106B3420BDB3846FFF795FD05464E
:1056300048B9024640F2D911274B284800F090FDA6
:1056400001315B00EEE7002300F1140100F11002CC
:105650001846534533DB20692AEAEA7A04F1140339
:1056600019F01F0901EB8A0103EB800C2BD08A464D
:105670000022C9F1200E186800FA09F002434AF826
:10568000042B53F8042B9C4522FA0EF2F3D8ACEB12
:105690000403153B23F00303043304F11500844590
:1056A00038BF0423CA500AB108F10206013E384649
:1056B00021462E61FFF790FD2846BDE8F08742F8AD
:1056C000040F0133C5E7043953F8042B9C4541F816
:1056D000042FF9D8EAE700BF287B0008EB7B00081D
:1056E00003460A69006930B5801A0DD114331431AC
:1056F00003EB820401EB820154F8045D51F8042DA0
:10570000954202D004D3012030BDA342F4D3FBE77D
:105710004FF0FF30F8E700002DE9F84F0C46064641
:10572000114620469246FFF7DBFF051E11D12946A0
:105730003046FFF711FD024628B940F232213C4BBA
:105740003C4800F00DFD0123C0E904351046BDE8DA
:10575000F88FA4BF5346A2463046DAF80410A6BF1D
:105760001C4600250125FFF7F7FC024618B94FF447
:1057700010712F4BE4E700F11408DAF81070C560DF
:105780004FF0000C0AF114050AF11000C246266918
:1057900004F1140905EB870E09EB860650F804BFE7
:1057A00059F8043B1FFA8BF161441FFA83FC1B0C70
:1057B000A1EB0C01C3EB1B4303EB214389B24FEA7E
:1057C000234C4E4541EA03434AF8043BE6D8331BD9
:1057D000153B23F0030315340433A64238BF0423DA
:1057E0001D4443441E462C4674450ED30EF103015E
:1057F000491B21F00301033DAE4538BF0021194488
:1058000051F8043D8BB11761A0E754F8048B1FFADF
:1058100088F16144081400EB184089B241EA004164
:105820004FEA204C46F8041BDEE7013FE8E700BFE3
:10583000287B0008EB7B0008114B0B40A3F1507351
:10584000002B02DD0020194670475B42B3F1A07FB8
:105850004FF000004FF000014FEA235204DA4FF4FA
:10586000002343FA02F17047A2F114031E2BD6BFA6
:105870004FF00042012322FA03F31846704700BF9D
:105880000000F07F2DE9F843076900F1140909EBE6
:10589000870757F8046CA7F104083046FFF752FD5C
:1058A000C0F120030A280B601F4917DCC14528BF3F
:1058B0000022C0F10B0C26FA0CF338BF57F8082C65
:1058C00043EA010500F1150306FA03F322FA0CF28C
:1058D00043EA020420462946BDE8F883C1452EBFAD
:1058E000002257F8082CA7F10808B0F10B0316D0D6
:1058F000C3F1200722FA07F1C84506FA03F646EA83
:10590000010694BF002158F8041C46F07F5502FAA6
:1059100003F0F94045F4401540EA0104DAE7144683
:1059200046EA0105D6E700BF0000F03F2DE9F3414C
:105930000121DDE9087690461D46FFF70DFC04467F
:1059400030B9024640F20A31244B254800F008FCE9
:10595000C5F31303C5F30A552DBB0193B8F100033A
:1059600026D068460093FFF70DFD0099F0B1019A2B
:10597000C0F1200302FA03F30B43C24063610192BA
:10598000019B002B14BF02210121A3612161C5B13C
:10599000A5F233450544C0F135003D603060204636
:1059A00002B0BDE8F08143F48013D6E76161E7E718
:1059B00001A8FFF7E7FC0121019B21616361203011
:1059C000E5E704EB8103A0F2324038601869FFF785
:1059D000B9FCC0EB41113160E1E700BF287B000852
:1059E000EB7B00082DE9F74F884669468146FFF7B3
:1059F00049FF0F4604460D46404601A9FFF742FF06
:105A0000D9F81030D8F810208B46A3EB020CDDE952
:105A100000329B1A03EB4C13002BD5BF0A462A46D3
:105A2000C3EB033302EB0357D8BF02EB035B5B46C8
:105A3000024639462046FAF783FE03B0BDE8F08FF0
:105A4000013970B549111469013102F1140300EBF9
:105A5000810103EB8404051FA3420CD3A31A113B5D
:105A600023F003031132A24288BF0023184400230D
:105A7000884205D370BD53F8046B45F8046FEBE71B
:105A800040F8043BF4E700F1140200694B1198421E
:105A900010B511DB0ADD11F01F0107D052F82340C9
:105AA00024FA01F000FA01F18C420BD102EB8303DE
:105AB000934203D8002010BD0346F7E753F8041DB6
:105AC0000029F5D00120F6E738B502FB01F529469B
:105AD000FEF782F8044618B12A460021FEF728F89E
